{
  "address": "0x5FC8d32690cc91D4c39d9d3abcBD16989F875707",
  "abi": [
    {
      "inputs": [
        {
          "internalType": "address",
          "name": "priceFeedAddress",
          "type": "address"
        }
      ],
      "stateMutability": "nonpayable",
      "type": "constructor"
    },
    {
      "inputs": [],
      "name": "FundMe_NotOwner",
      "type": "error"
    },
    {
      "stateMutability": "payable",
      "type": "fallback"
    },
    {
      "inputs": [],
      "name": "MINIMUM_USD",
      "outputs": [
        {
          "internalType": "uint256",
          "name": "",
          "type": "uint256"
        }
      ],
      "stateMutability": "view",
      "type": "function"
    },
    {
      "inputs": [],
      "name": "Withdraw",
      "outputs": [],
      "stateMutability": "nonpayable",
      "type": "function"
    },
    {
      "inputs": [
        {
          "internalType": "address",
          "name": "",
          "type": "address"
        }
      ],
      "name": "addressToAmountFunded",
      "outputs": [
        {
          "internalType": "uint256",
          "name": "",
          "type": "uint256"
        }
      ],
      "stateMutability": "view",
      "type": "function"
    },
    {
      "inputs": [],
      "name": "fund",
      "outputs": [],
      "stateMutability": "payable",
      "type": "function"
    },
    {
      "inputs": [
        {
          "internalType": "uint256",
          "name": "",
          "type": "uint256"
        }
      ],
      "name": "funders",
      "outputs": [
        {
          "internalType": "address",
          "name": "",
          "type": "address"
        }
      ],
      "stateMutability": "view",
      "type": "function"
    },
    {
      "inputs": [],
      "name": "i_owner",
      "outputs": [
        {
          "internalType": "address",
          "name": "",
          "type": "address"
        }
      ],
      "stateMutability": "view",
      "type": "function"
    },
    {
      "inputs": [],
      "name": "priceFeed",
      "outputs": [
        {
          "internalType": "contract AggregatorV3Interface",
          "name": "",
          "type": "address"
        }
      ],
      "stateMutability": "view",
      "type": "function"
    },
    {
      "stateMutability": "payable",
      "type": "receive"
    }
  ],
  "transactionHash": "0x73eb8faaa2d2ce77a2eb60d38b58f563fed489b0657889fb65417c979eb76557",
  "args": [
    "0xDc64a140Aa3E981100a9becA4E685f962f0cF6C9"
  ],
  "numDeployments": 1,
  "solcInputHash": "5e088db943bb8445ae3942ae184d698e",
  "bytecode": "0x60a060405234801561001057600080fd5b50604051610f7b380380610f7b83398181016040528101906100329190610113565b3373ffffffffffffffffffffffffffffffffffffffff1660808173ffffffffffffffffffffffffffffffffffffffff1660601b8152505080600260006101000a81548173ffffffffffffffffffffffffffffffffffffffff021916908373ffffffffffffffffffffffffffffffffffffffff16021790555050610140565b600080fd5b600073ffffffffffffffffffffffffffffffffffffffff82169050919050565b60006100e0826100b5565b9050919050565b6100f0816100d5565b81146100fb57600080fd5b50565b60008151905061010d816100e7565b92915050565b600060208284031215610129576101286100b0565b5b6000610137848285016100fe565b91505092915050565b60805160601c610e16610165600039600081816102eb015261055d0152610e166000f3fe6080604052600436106100745760003560e01c8063741bef1a1161004e578063741bef1a1461010c578063b60d428814610137578063dba6335f14610141578063dc0d3dff1461016c57610083565b80633e47d6f31461008d57806357ea89b6146100ca5780636b69a592146100e157610083565b36610083576100816101a9565b005b61008b6101a9565b005b34801561009957600080fd5b506100b460048036038101906100af91906107a4565b6102d1565b6040516100c191906107ea565b60405180910390f35b3480156100d657600080fd5b506100df6102e9565b005b3480156100ed57600080fd5b506100f6610529565b60405161010391906107ea565b60405180910390f35b34801561011857600080fd5b50610121610535565b60405161012e9190610864565b60405180910390f35b61013f6101a9565b005b34801561014d57600080fd5b5061015661055b565b604051610163919061088e565b60405180910390f35b34801561017857600080fd5b50610193600480360381019061018e91906108d5565b61057f565b6040516101a0919061088e565b60405180910390f35b678ac7230489e800006101e7600260009054906101000a900473ffffffffffffffffffffffffffffffffffffffff16346105be90919063ffffffff16565b1015610228576040517f08c379a000000000000000000000000000000000000000000000000000000000815260040161021f9061095f565b60405180910390fd5b6000339080600181540180825580915050600190039060005260206000200160009091909190916101000a81548173ffffffffffffffffffffffffffffffffffffffff021916908373ffffffffffffffffffffffffffffffffffffffff16021790555034600160003373ffffffffffffffffffffffffffffffffffffffff1673ffffffffffffffffffffffffffffffffffffffff16815260200190815260200160002081905550565b60016020528060005260406000206000915090505481565b7f000000000000000000000000000000000000000000000000000000000000000073ffffffffffffffffffffffffffffffffffffffff163373ffffffffffffffffffffffffffffffffffffffff161461036e576040517f10e0797900000000000000000000000000000000000000000000000000000000815260040160405180910390fd5b60005b6000805490508110156104195760008082815481106103935761039261097f565b5b9060005260206000200160009054906101000a900473ffffffffffffffffffffffffffffffffffffffff1690506000600160008373ffffffffffffffffffffffffffffffffffffffff1673ffffffffffffffffffffffffffffffffffffffff16815260200190815260200160002081905550508080610411906109dd565b915050610371565b50600067ffffffffffffffff81111561043557610434610a26565b5b6040519080825280602002602001820160405280156104635781602001602082028036833780820191505090505b506000908051906020019061047992919061069a565b5060003373ffffffffffffffffffffffffffffffffffffffff16476040516104a090610a86565b60006040518083038185875af1925050503d80600081146104dd576040519150601f19603f3d011682016040523d82523d6000602084013e6104e2565b606091505b5050905080610526576040517f08c379a000000000000000000000000000000000000000000000000000000000815260040161051d90610ae7565b60405180910390fd5b50565b678ac7230489e8000081565b600260009054906101000a900473ffffffffffffffffffffffffffffffffffffffff1681565b7f000000000000000000000000000000000000000000000000000000000000000081565b6000818154811061058f57600080fd5b906000526020600020016000915054906101000a900473ffffffffffffffffffffffffffffffffffffffff1681565b6000806105ca836105fa565b90506000670de0b6b3a764000085836105e39190610b07565b6105ed9190610b90565b9050809250505092915050565b6000808273ffffffffffffffffffffffffffffffffffffffff1663feaf968c6040518163ffffffff1660e01b815260040160a06040518083038186803b15801561064357600080fd5b505afa158015610657573d6000803e3d6000fd5b505050506040513d601f19601f8201168201806040525081019061067b9190610c4e565b5050509150506402540be400816106929190610cc9565b915050919050565b828054828255906000526020600020908101928215610713579160200282015b828111156107125782518260006101000a81548173ffffffffffffffffffffffffffffffffffffffff021916908373ffffffffffffffffffffffffffffffffffffffff160217905550916020019190600101906106ba565b5b5090506107209190610724565b5090565b5b8082111561073d576000816000905550600101610725565b5090565b600080fd5b600073ffffffffffffffffffffffffffffffffffffffff82169050919050565b600061077182610746565b9050919050565b61078181610766565b811461078c57600080fd5b50565b60008135905061079e81610778565b92915050565b6000602082840312156107ba576107b9610741565b5b60006107c88482850161078f565b91505092915050565b6000819050919050565b6107e4816107d1565b82525050565b60006020820190506107ff60008301846107db565b92915050565b6000819050919050565b600061082a61082561082084610746565b610805565b610746565b9050919050565b600061083c8261080f565b9050919050565b600061084e82610831565b9050919050565b61085e81610843565b82525050565b60006020820190506108796000830184610855565b92915050565b61088881610766565b82525050565b60006020820190506108a3600083018461087f565b92915050565b6108b2816107d1565b81146108bd57600080fd5b50565b6000813590506108cf816108a9565b92915050565b6000602082840312156108eb576108ea610741565b5b60006108f9848285016108c0565b91505092915050565b600082825260208201905092915050565b7f4469646e27742073656e6420656e6f7567680000000000000000000000000000600082015250565b6000610949601283610902565b915061095482610913565b602082019050919050565b600060208201905081810360008301526109788161093c565b9050919050565b7f4e487b7100000000000000000000000000000000000000000000000000000000600052603260045260246000fd5b7f4e487b7100000000000000000000000000000000000000000000000000000000600052601160045260246000fd5b60006109e8826107d1565b91507fffffffffffffffffffffffffffffffffffffffffffffffffffffffffffffffff821415610a1b57610a1a6109ae565b5b600182019050919050565b7f4e487b7100000000000000000000000000000000000000000000000000000000600052604160045260246000fd5b600081905092915050565b50565b6000610a70600083610a55565b9150610a7b82610a60565b600082019050919050565b6000610a9182610a63565b9150819050919050565b7f43616c6c206661696c6564000000000000000000000000000000000000000000600082015250565b6000610ad1600b83610902565b9150610adc82610a9b565b602082019050919050565b60006020820190508181036000830152610b0081610ac4565b9050919050565b6000610b12826107d1565b9150610b1d836107d1565b9250817fffffffffffffffffffffffffffffffffffffffffffffffffffffffffffffffff0483118215151615610b5657610b556109ae565b5b828202905092915050565b7f4e487b7100000000000000000000000000000000000000000000000000000000600052601260045260246000fd5b6000610b9b826107d1565b9150610ba6836107d1565b925082610bb657610bb5610b61565b5b828204905092915050565b600069ffffffffffffffffffff82169050919050565b610be081610bc1565b8114610beb57600080fd5b50565b600081519050610bfd81610bd7565b92915050565b6000819050919050565b610c1681610c03565b8114610c2157600080fd5b50565b600081519050610c3381610c0d565b92915050565b600081519050610c48816108a9565b92915050565b600080600080600060a08688031215610c6a57610c69610741565b5b6000610c7888828901610bee565b9550506020610c8988828901610c24565b9450506040610c9a88828901610c39565b9350506060610cab88828901610c39565b9250506080610cbc88828901610bee565b9150509295509295909350565b6000610cd482610c03565b9150610cdf83610c03565b9250827f7fffffffffffffffffffffffffffffffffffffffffffffffffffffffffffffff0482116000841360008413161615610d1e57610d1d6109ae565b5b817f80000000000000000000000000000000000000000000000000000000000000000583126000841260008413161615610d5b57610d5a6109ae565b5b827f80000000000000000000000000000000000000000000000000000000000000000582126000841360008412161615610d9857610d976109ae565b5b827f7fffffffffffffffffffffffffffffffffffffffffffffffffffffffffffffff0582126000841260008412161615610dd557610dd46109ae565b5b82820290509291505056fea2646970667358221220167ab8f6d1c4df85b25980b329bac1cbaaa015c7b87b42cff718e9dde638a18c64736f6c63430008080033",
  "devdoc": {
    "author": "Forbes",
    "details": "Implements a pricefeed",
    "kind": "dev",
    "methods": {
      "Withdraw()": {
        "details": "resets the funders array"
      },
      "fund()": {
        "details": "uses getConversionRate function from other contract"
      }
    },
    "title": "Crowdfunding contract",
    "version": 1
  },
  "userdoc": {
    "kind": "user",
    "methods": {
      "Withdraw()": {
        "notice": "Withdraw funds from contract"
      },
      "fund()": {
        "notice": "Send ETH to the contract"
      }
    },
    "notice": "A demo for funding contract",
    "version": 1
  },
  "storageLayout": {
    "storage": [
      {
        "astId": 62,
        "contract": "contracts/FundMe.sol:FundMe",
        "label": "funders",
        "offset": 0,
        "slot": "0",
        "type": "t_array(t_address)dyn_storage"
      },
      {
        "astId": 66,
        "contract": "contracts/FundMe.sol:FundMe",
        "label": "addressToAmountFunded",
        "offset": 0,
        "slot": "1",
        "type": "t_mapping(t_address,t_uint256)"
      },
      {
        "astId": 69,
        "contract": "contracts/FundMe.sol:FundMe",
        "label": "priceFeed",
        "offset": 0,
        "slot": "2",
        "type": "t_contract(AggregatorV3Interface)45"
      }
    ],
    "types": {
      "t_address": {
        "encoding": "inplace",
        "label": "address",
        "numberOfBytes": "20"
      },
      "t_array(t_address)dyn_storage": {
        "base": "t_address",
        "encoding": "dynamic_array",
        "label": "address[]",
        "numberOfBytes": "32"
      },
      "t_contract(AggregatorV3Interface)45": {
        "encoding": "inplace",
        "label": "contract AggregatorV3Interface",
        "numberOfBytes": "20"
      },
      "t_mapping(t_address,t_uint256)": {
        "encoding": "mapping",
        "key": "t_address",
        "label": "mapping(address => uint256)",
        "numberOfBytes": "32",
        "value": "t_uint256"
      },
      "t_uint256": {
        "encoding": "inplace",
        "label": "uint256",
        "numberOfBytes": "32"
      }
    }
  }
}